:100000000C94C7000C94E4000C94E4000C94E400FD
:100010000C94E4000C94E4000C94E4000C94E400D0
:100020000C94E4000C94E4000C94E4000C94E400C0
:100030000C94E6000C9400010C94E4000C94E40091
:100040000C94E4000C94E4000C94E4000C94E400A0
:100050000C94E4000C94E4000C94E4000C94E40090
:100060000C94E4000C94E4000C94E4000C94E40080
:100070000C94E4000C94E4000C94E4000C94E40070
:100080000C94E4000C941A010C94E4006E616E0070
:10009000696E660000407A10F35A00A0724E18098B
:1000A0000010A5D4E80000E87648170000E40B54DF
:1000B000020000CA9A3B000000E1F50500008096AE
:1000C0009800000040420F000000A08601000000E0
:1000D000102700000000E80300000000640000009A
:1000E00000000A00000000000100000000002C7663
:1000F000D888DC674F0823DFC1DFAE59E1B1B7967E
:10010000E5E3E453C63AE651997696E8E6C28426DA
:10011000EB898C9B62ED407C6FFCEFBC9C9F40F2B6
:10012000BAA56FA5F490055A2AF75C936B6CF96732
:100130006DC11BFCE0E40D47FEF520E6B500D0EDF7
:10014000902E0300943577050080841E080000205F
:100150004E0A000000C80C333333330F986E1283FD
:100160001141EF8D2114893BE65516CFFEE6DB18D1
:10017000D1844B381BF77C1D901DA4BBE424203296
:1001800084725E228100C9F124ECA1E53D2711248F
:100190001FBECFEFD0E1DEBFCDBF11E0A0E0B1E0E8
:1001A000EEEDF5E102C005900D92A43CB107D9F740
:1001B00011E0A4ECB1E001C01D92AE3CB107E1F743
:1001C0000E94B2030C94ED0A0C9400001F920F924F
:1001D0000FB60F9211248F93EF93FF93E1E6F0E0B7
:1001E000808180688083E2E6F0E08081806880839F
:1001F000FF91EF918F910F900FBE0F901F90189568
:100200001F920F920FB60F9211248F93EF93FF93CB
:10021000E1E6F0E0808180688083E2E6F0E08081C2
:100220008F778083FF91EF918F910F900FBE0F908A
:100230001F9018951F920F920FB60F9211240F90D6
:100240000FBE0F901F90189583E390E00E949A03D1
:100250000E946B030E942A030E945A030E945602C6
:10026000789480E090E00895CF93DF9300D000D0A1
:1002700000D0CDB7DEB7BE016F5F7F4F80E090E06A
:100280000E94720329813A813370A0E0BAE00E9493
:10029000BB082FEF33E040E050E00E94CA08DA01CB
:1002A000C90162E0880F991FAA1FBB1F6A95D1F789
:1002B000BF93AF939F938F938EE091E09F938F9323
:1002C0002B833C834D835E830E94490A0E949503E1
:1002D0000F900F900F900F900F900F902B813C81FB
:1002E0004D815E81CA01B90126960FB6F894DEBF32
:1002F0000FBECDBFDF91CF910895CF93DF9300D094
:10030000CDB7DEB74FE959E360E080E40E945F02B9
:10031000892B89F4AE014F5F5F4F60E080E40E945B
:10032000AD02009759F429813A812F39394341F0C0
:100330008DEF9FEF05C08FEF9FEF02C08EEF9FEF15
:100340000F900F90DF91CF9108958AE090E0909305
:10035000C7018093C60182E090E09093C50180932D
:10036000C40140E050E165E080E40E945F0221E0CA
:1003700030E0892B11F420E030E088279927821B98
:10038000930B0895CF92DF92EF92FF920F931F93FA
:10039000CF93DF9300D000D0CDB7DEB7AE014D5F75
:1003A0005F4F61E080E40E94AD02892B19F086E284
:1003B00091E040C08C818F938B818F9380E591E099
:1003C0009F938F930E94490A6B817C8177FF03C0C2
:1003D000719561957109882777FD8095982F0E9406
:1003E000500420E030E04AEF56E40E94E60320E0AB
:1003F00030E040EA53E40E94DC049F938F937F93A4
:100400006F9385E691E09F938F930E94490A0E9423
:10041000A501AE014F5F5F4F64E080E40E94AD0232
:100420008C010FB6F894DEBF0FBECDBF009739F038
:1004300082E891E00E945F0A0FEF1FEF29C06981F7
:100440007A81882777FD8095982F0E9450046B0150
:100450007C018091C6019091C701BC0180E090E0D1
:100460000E944E049B01AC01C701B6010E94E60345
:100470009F938F937F936F9386EA91E09F938F93DF
:100480000E94490A0F900F900F900F900F900F90BD
:10049000C8010F900F900F900F90DF91CF911F9197
:1004A0000F91FF90EF90DF90CF90089588E08093B8
:1004B0007000E4E7F0E0808184608083089594EA2E
:1004C000909374009091740097FFFCCF909171000D
:1004D000987F983019F08FEF9FEF0895880F8093E1
:1004E000730085E8809374008091740087FFFCCFCF
:1004F00080917100887F883171F76093730084E880
:10050000809374008091740087FFFCCF809171000C
:10051000887F883201F75093730084E880937400D9
:100520008091740087FFFCCF80917100887F8832B2
:1005300091F64093730084E8809374008091740076
:1005400087FFFCCF80917100887F883221F684E993
:100550008093740080E090E00895FA0194EA90930B
:1005600074009091740097FFFCCF90917100987F78
:10057000983019F08FEF9FEF0895982F990F90936F
:10058000730094E8909374009091740097FFFCCFEF
:1005900090917100987F983169F76093730094E8A7
:1005A000909374009091740097FFFCCF909171002C
:1005B000987F9832F9F694E990937400A0E1B7E23D
:1005C0001197F1F794EA909374009091740097FF5B
:1005D000FCCF90917100987F983061F6880F816010
:1005E0008093730084E8809374008091740087FF87
:1005F000FCCF80917100887F803409F0BBCF84EC00
:10060000809374008091740087FFFCCF809171000B
:10061000887F803509F0AECF80917300108281838E
:1006200084E8809374008091740087FFFCCF8091F0
:100630007100887F883509F09DCF209173008081FB
:100640009181822B9183808384E98093740080E080
:1006500090E00895809164008260809364008091AE
:10066000650082608093650088EE93E028EC30E0BE
:10067000F9013197F1F70197D9F7809165008D7FE6
:100680008093650088EE93E028EC30E0F901319723
:10069000F1F70197D9F7809165008260809365003A
:1006A00088EE93E028EC30E0F9013197F1F70197FB
:1006B000D9F708958EB588608EBD8EB585608EBDE4
:1006C0008CE98ABD88E088BD87B7806187BF87B71E
:1006D000886087BF08953E9A3F9A87B1807E87B928
:1006E000379A089597B18F71982B97B9369A86B13A
:1006F00084B190E0FB019183808325B1922B91839B
:1007000080830895CF93C82F8A3019F48DE00E941A
:1007100082035D9BFECFCCB980E090E0CF9108953D
:100720005F9BFECF8CB190E008955F9B02C08CB1BF
:10073000FCCF08959AB198619AB95798E5E9F0E02D
:1007400090819F7B9083908196609083109290001F
:1007500089B9E8ECF1E080E091E0938382839183B2
:100760008083089582B1806F82B90E94240180E362
:1007700083B9C1E0D0E080E090E010E200E128EC35
:10078000E22EF12C13B9892B31F420916300822FD2
:10079000817090E0F8CF03B9209711F01F9A01C043
:1007A0001F9880E593ECF7013197F1F70197D9F79E
:1007B00081E0C8270E9434010E947D01892B19F035
:1007C00081E090E0DFCF0E94C201FACF0CD0BAC026
:1007D000B2D040F0A9D030F021F45F3F19F09BC0B7
:1007E0005111E4C09EC0BFD098F39923C9F355239B
:1007F000B1F3951B550BBB27AA2762177307840714
:1008000038F09F5F5F4F220F331F441FAA1FA9F3C9
:1008100033D00E2E3AF0E0E830D091505040E695BB
:10082000001CCAF729D0FE2F27D0660F771F881F1C
:10083000BB1F261737074807AB07B0E809F0BB0B0B
:10084000802DBF01FF2793585F4F2AF09E3F51052F
:1008500068F061C0ABC05F3FECF3983EDCF3869577
:1008600077956795B795F7959F5FC9F7880F911DA5
:100870009695879597F90895E1E0660F771F881F91
:10088000BB1F621773078407BA0720F0621B730B44
:10089000840BBA0BEE1F88F7E0950895E89409C021
:1008A00097FB3EF490958095709561957F4F8F4FA3
:1008B0009F4F9923A9F0F92F96E9BB279395F695B9
:1008C000879577956795B795F111F8CFFAF4BB0F37
:1008D00011F460FF1BC06F5F7F4F8F4F9F4F16C09B
:1008E000882311F096E911C0772321F09EE8872F25
:1008F000762F05C0662371F096E8862F70E060E0E1
:100900002AF09A95660F771F881FDAF7880F969559
:10091000879597F9089597F99F6780E870E060E000
:1009200008959FEF80EC089500240A941616170688
:1009300018060906089500240A94121613061406D0
:1009400005060895092E0394000C11F4882352F033
:10095000BB0F40F4BF2B11F460FF04C06F5F7F4FEB
:100960008F4F9F4F089557FD9058440F551F59F0D2
:100970005F3F71F04795880F97FB991F61F09F3F8C
:1009800079F087950895121613061406551FF2CFB5
:100990004695F1DF08C0161617061806991FF1CF05
:1009A00086957105610508940895E894BB2766272C
:1009B0007727CB0197F908950BD0C4CFB5DF28F086
:1009C000BADF18F0952309F0A6CFABCF1124EECFF4
:1009D000CADFA0F3959FD1F3950F50E0551F629F9A
:1009E000F001729FBB27F00DB11D639FAA27F00D88
:1009F000B11DAA1F649F6627B00DA11D661F829FAF
:100A00002227B00DA11D621F739FB00DA11D621F93
:100A1000839FA00D611D221F749F3327A00D611DB0
:100A2000231F849F600D211D822F762F6A2F112492
:100A30009F5750408AF0E1F088234AF0EE0FFF1FE5
:100A4000BB1F661F771F881F91505040A9F79E3F1C
:100A5000510570F060CFAACF5F3FECF3983EDCF316
:100A6000869577956795B795F795E7959F5FC1F759
:100A7000FE2B880F911D9695879597F90895A3E110
:100A8000B0E0E5E4F5E00C94EC086C014B012A01C0
:100A9000FC0117821682838181FF43C3AE014F5F41
:100AA0005F4F3A01F6019381F40193FD859193FF25
:100AB00081914F01882309F430C3853239F493FDC5
:100AC000859193FF81914F01853239F4B60190E011
:100AD0000E94110A52012501E5CF10E0F12C20E01F
:100AE0002032A0F48B3269F030F4803259F0833236
:100AF00069F420612CC08D3239F0803339F42160E3
:100B000026C02260246023C0286021C027FD27C0A2
:100B100030ED380F3A3078F426FF06C0FAE01F9F18
:100B2000300D1124132F13C04AE0F49E300D112410
:100B3000F32E20620CC08E3221F426FDEEC220641A
:100B400006C08C3611F4206802C0883641F4F401E6
:100B500093FD859193FF81914F018111C1CF9BEB53
:100B6000980F933018F42061805E06C09BE9980FBF
:100B7000933008F071C12F7E26FF16E02F73322EBE
:100B8000853619F42064322E08C0863621F4F22FFF
:100B9000F0683F2E02C01111115037FE07C01C3300
:100BA00050F4EE24E394E10E27E00BC0183038F047
:100BB00027E017E005C027E04CE3E42E02C0212F18
:100BC000E12C520144E0A40EB11CF201608171815C
:100BD000828193810E2DA3010E9423092C0109819A
:100BE00000FF02C003FF07C031FC08C032FE09C08D
:100BF00030E2232E07C02DE2222E04C09BE2292ED4
:100C000001C0212C802F8C7019F0211068C2A8C25D
:100C100037FE0FC0E40C04FF04C08A81813309F45D
:100C2000EA941E1474F5F8E0FE1578F588E0E82ED5
:100C30002CC036FC2AC0812F90E0841595059CF0CD
:100C40002CEF42162FEF520674F0432D4068342EDD
:100C50000AC0E2E0F0E0EC0FFD1FE10FF11D808122
:100C6000803319F411501111F4CF37FE0EC0EE2469
:100C7000E394E10E812F90E0481659062CF41419E4
:100C800004C0EE24E39401C010E037FE06C0141443
:100C9000150434F4C201019605C085E090E002C05D
:100CA00081E090E021100196112331F0212F30E0F6
:100CB0002F5F3F4F820F931F2F2D30E08217930736
:100CC00014F4F81A01C0F12C832D897049F4FF2027
:100CD00039F0B60180E290E00E94110AFA94F7CF51
:100CE000222029F0B601822D90E00E94110A33FCE7
:100CF00009C0FF2039F0B60180E390E00E94110A9C
:100D0000FA94F7CF37FE5AC0942D852D57FE02C0B6
:100D100090E080E0292E382E20E030E0A2014E192C
:100D200051095D874C87A201421953095F874E879D
:100D3000612F70E044275527461B570B598B488B72
:100D40005FEF2516350649F4B6018EE290E02A8B56
:100D50003B8B0E94110A3B892A89421453046CF090
:100D60004C855D854215530544F4EE85FF85E20F01
:100D7000F31FE60DF71D818101C080E351E0251AC4
:100D800031082F5F3F4F48895989241635064CF0AA
:100D9000B60190E02A8B3B8B0E94110A2A893B897D
:100DA000CFCF2414350439F49A81963318F495334F
:100DB00011F404FF81E3B60190E04BC08A818133D6
:100DC00009F00F7EB60190E00E94110A111105C0D2
:100DD00034FC18C085E690E017C0B6018EE290E0C2
:100DE0000E94110A82E0EE24E394E80EF301E80F7A
:100DF000F11D8081B60190E00E94110A11508E2DE4
:100E000091F7E6CF85E490E0B6010E94110A57FC05
:100E100005C04114510439F404FF05C051944194B4
:100E200051088DE201C08BE2B60190E00E94110AE8
:100E300080E39AE0491651042CF08F5F5AE0451A7E
:100E40005108F7CFB60190E00E94110AB601C20125
:100E5000C0960E94110A57C1833631F0833779F06A
:100E6000833509F058C021C05201E2E0AE0EB11C3A
:100E7000F2018081898301E010E0230114C0520156
:100E8000F2E0AF0EB11CF2014080518026FF03C09A
:100E9000612F70E002C06FEF7FEFC2012A8B0E94CA
:100EA000060A8C012A892F7715C05201F2E0AF0E95
:100EB000B11CF2014080518026FF03C0612F70E019
:100EC00002C06FEF7FEFC2012A8B0E94FB098C01E9
:100ED0002A892068322E23FD1AC08F2D90E0081732
:100EE0001907A8F4B60180E290E00E94110AFA9472
:100EF000F4CFF20137FC859137FE81912F01B601C5
:100F000090E00E94110AF110FA94015011090115A4
:100F1000110579F7F8C0843611F0893659F5520178
:100F200027FF09C0F4E0AF0EB11CF20160817181AE
:100F3000828193810AC0F2E0AF0EB11CF2016081A0
:100F40007181882777FD8095982F2F76322E97FF15
:100F500009C090958095709561957F4F8F4F9F4FF9
:100F60002068322E2AE030E0A3010E948F0AE82E8A
:100F7000E6183FC0022F853721F40F7E2AE030E0CB
:100F80001DC0097F8F3691F018F4883559F0C5C01F
:100F9000803719F0883711F0C0C0006104FF09C024
:100FA000046007C024FF08C0066006C028E030E0E7
:100FB00005C020E130E002C020E132E0520107FF2D
:100FC00009C0F4E0AF0EB11CF20160817181828131
:100FD000938108C0F2E0AF0EB11CF2016081718113
:100FE00080E090E0A3010E948F0AE82EE6180F77B8
:100FF000302E36FE0BC0332D3E7FE11650F434FE0A
:101000000AC032FC08C0332D3E7E05C00E2D332DA4
:1010100003C00E2D01C0012F34FF0CC0FE01EE0DE8
:10102000F11D8081803311F4397E08C032FF05C084
:101030000E5F04C0832F867809F00F5F33FD13C065
:1010400030FF06C01E2D0F1518F41F0D101B0F2D9D
:101050000F1568F4B60180E290E03B8B0E94110A04
:101060000F5F3B89F5CF0F1510F4F01A01C0F12C7A
:1010700034FF12C0B60180E390E03B8B0E94110A5E
:101080003B8932FF17C031FD03C088E790E002C002
:1010900088E590E0B6010CC0832F867859F031FFC7
:1010A00002C08BE201C080E237FD8DE2B60190E024
:1010B0000E94110AE11638F4B60180E390E00E9424
:1010C000110A1150F7CFEA94F301EE0DF11D808162
:1010D000B60190E00E94110AE110F5CF14C0F4E0CF
:1010E000FF1558F584E0F81A33FE1EC0211026C003
:1010F00003FF2AC00CE810E0F32DF0713F2EF80139
:101100008491811124C0FF2009F4E5CCB60180E26E
:1011100090E00E94110AFA94F6CFF6018681978139
:1011200026C08FEF9FEF23C0B60180E290E00E94BF
:10113000110AFA94F110F8CFD9CFF12CB601822D13
:1011400090E00E94110AD4CF00E910E0D5CF311011
:101150008052B60190E00E94110A0F5F1F4FCFCF5F
:1011600023E02F1510F483E0BECFF12CC1CF63969E
:10117000E2E10C940809A29FB001B39FC001A39FB4
:10118000700D811D1124911DB29F700D811D1124C0
:10119000911D0895A1E21A2EAA1BBB1BFD010DC0D3
:1011A000AA1FBB1FEE1FFF1FA217B307E407F50717
:1011B00020F0A21BB30BE40BF50B661F771F881FF3
:1011C000991F1A9469F760957095809590959B0189
:1011D000AC01BD01CF0108952F923F924F925F92D3
:1011E0006F927F928F929F92AF92BF92CF92DF9237
:1011F000EF92FF920F931F93CF93DF93CDB7DEB79C
:10120000CA1BDB0B0FB6F894DEBF0FBECDBF09942F
:101210002A88398848885F846E847D848C849B8486
:10122000AA84B984C884DF80EE80FD800C811B8194
:10123000AA81B981CE0FD11D0FB6F894DEBF0FBEC3
:10124000CDBFED010895283008F027E03327DA01FB
:10125000990F311D87FD916000966105710539F484
:1012600032602E5F3D9330E32A95E1F708959F3F6A
:1012700030F080387105610509F03C5F3C5F3D93BB
:10128000913008F08068911DDF93CF931F930F93E7
:10129000FF92EF92192F987F9695E92F9695969544
:1012A000E90FFF27E251FF4F99273327EE24FF2450
:1012B000A701E70105900894079428F4360FE71E6C
:1012C000F81E491F511D660F771F881F991F06942E
:1012D000A1F70590079428F4E70EF81E491F561F42
:1012E000C11D770F881F991F661F0694A1F70590EF
:1012F000079428F4F80E491F561FC71FD11D880FE9
:10130000991F661F771F0694A1F70590079420F494
:10131000490F561FC71FD81F990F661F771F881FB9
:101320000694A9F784911095177041F0D695C7954A
:1013300057954795F794E7941A95C1F7E4E9F0E0DB
:1013400068941590159135916591959105907FE27E
:101350007395E118F10A430B560BC90BD009C0F77E
:10136000E10CF11E431F561FC91FD01D7EF47033C0
:1013700011F48A95E6CFE894015030F0080F0AF492
:101380000027021708F4202F2395022F7A3328F024
:1013900079E37D932A95E9F710C07D932A9589F624
:1013A000069497956795379517951794E118F10A64
:1013B000430B560BC90BD00998F023957E9173957A
:1013C0007A3308F070E37C932013B8F77E91706154
:1013D0007D9330F0839571E37D9370E32A95E1F777
:1013E0001124EF90FF900F911F91CF91DF919927DA
:1013F00087FD90950895FC010590615070400110A3
:10140000D8F7809590958E0F9F1F0895FC0161502D
:10141000704001900110D8F7809590958E0F9F1F16
:1014200008950F931F93CF93DF93FB01238121FD39
:1014300003C08FEF9FEF28C022FF16C0468157815F
:10144000248135814217530744F4A081B1819D0165
:101450002F5F3F4F318320838C93268137812F5F0D
:101460003F4F3783268310C0EB01092F182F0084CC
:10147000F185E02D0995892BE1F68E819F810196FA
:101480009F838E83812F902FDF91CF911F910F919A
:101490000895A0E0B0E0EFE4FAE00C94FC08AE019F
:1014A0004B5F5F4FFA0161917191AF018091CA0169
:1014B0009091CB010E943F05E2E00C9418090F9334
:1014C0001F93CF93DF93E091CA01F091CB01238169
:1014D00021FF1BC08C01D0E0C0E0F80181918F0199
:1014E0006091CA017091CB01DB011896ED91FC91DE
:1014F0001997882331F00995892B79F3DFEFCFEF26
:10150000ECCF8AE00995892B19F08FEF9FEF02C08D
:101510008D2F9C2FDF91CF911F910F910895FA018C
:10152000AA27283051F1203181F1E8946F936E7F22
:101530006E5F7F4F8F4F9F4FAF4FB1E03ED0B4E013
:101540003CD0670F781F891F9A1FA11D680F791F54
:101550008A1F911DA11D6A0F711D811D911DA11D65
:1015600020D009F468943F912AE0269F1124301975
:10157000305D3193DEF6CF010895462F4770405D10
:101580004193B3E00FD0C9F7F6CF462F4F70405DBF
:101590004A3318F0495D31FD4052419302D0A9F71A
:1015A000EACFB4E0A6959795879577956795BA9514
:1015B000C9F700976105710508959B01AC010A2EDA
:1015C00006945795479537952795BA95C9F7620FB1
:0E15D000731F841F951FA01D0895F894FFCF70
:1015DE00000000030000000082039003000053751A
:1015EE0070706C7920566F6C746167653A20256C4B
:1015FE0075206D560A004572726F72207768696C9D
:10160E00652052656164696E67205368756E74203B
:10161E00566F6C74616765202830783031292E0042
:10162E00526561646564205368756E742069733AFF
:10163E002025780A00436F6D707574656420566FAF
:10164E006C746167652069733A20252E32666D567B
:10165E000A004572726F72207768696C6520526558
:10166E006164696E672043757272656E74202830EE
:10167E00783034292E00436F6D707574656420497F
:10168E00202830783034292069733A20252E32668E
:04169E006D410A0090
:00000001FF
