:100000000C944C000C9469000C9469000C946900E9
:100010000C9469000C9469000C9469000C946900BC
:100020000C9469000C9469000C9469000C946900AC
:100030000C9469000C9469000C9469000C9469009C
:100040000C9469000C9469000C9469000C9469008C
:100050000C9469000C9469000C9469000C9469007C
:100060000C9469000C9469000C9469000C9469006C
:100070000C9469000C9469000C9469000C9469005C
:100080000C9469000C9469000C9469006364696EB7
:100090006F70737578585B0011241FBECFEFD0E1ED
:1000A000DEBFCDBF12E0A0E0B1E0E6E9FFE002C0B4
:1000B00005900D92A233B107D9F712E0A2E3B2E0A6
:1000C00001C01D92A833B107E1F70E9436010C94DC
:1000D000C9070C94000083E390E00E941E010E9477
:1000E000EF000E94BF0080E090E00895CF93DF937F
:1000F00000D000D000D0CDB7DEB7BE016F5F7F4F1C
:1001000080E090E00E94F60029813A813370A0E0FF
:10011000BAE00E949C012FEF33E040E050E00E94E3
:10012000AB01DA01C90162E0880F991FAA1FBB1F4A
:100130006A95D1F7BF93AF939F938F938EE092E030
:100140009F938F932B833C834D835E830E94CD01CD
:100150000E9419010F900F900F900F900F900F9029
:100160002B813C814D815E81CA01B90126960FB673
:10017000F894DEBF0FBECDBFDF91CF91089580917F
:100180006400826080936400809165008260809347
:10019000650088EE93E028EC30E0F9013197F1F743
:1001A0000197D9F7809165008D7F8093650088EE77
:1001B00093E028EC30E0F9013197F1F70197D9F796
:1001C0008091650082608093650088EE93E028EC62
:1001D00030E0F9013197F1F70197D9F708953E9A88
:1001E0003F9A87B1807E87B9379A089597B18F710A
:1001F000982B97B9369A86B184B190E0FB01918330
:10020000808325B1922B918380830895CF93C82F4B
:100210008A3019F48DE00E9406015D9BFECFCCB9B7
:1002200080E090E0CF9108955F9BFECF8CB190E08D
:1002300008955F9B02C08CB1FCCF08959AB198617C
:100240009AB95798E5E9F0E090819F7B908390817F
:10025000966090831092900089B9E2E3F2E080E02A
:1002600091E093838283918380830895CF93DF937A
:10027000CDB7DEB7DA950FB6F894DEBF0FBECDBFAF
:1002800087E0EEE0F1E08E010F5F1F4FD801019093
:100290000D928A95E1F7FE01389689EFDF011D92F4
:1002A0008A95E9F782B1806F82B90E946B0080E382
:1002B00083B9EE24E394F12C80E090E020E2722EEA
:1002C00030E1632E48EC842E912C56E2A52E52E0AC
:1002D000B52E69E2C62E62E0D62E73B8892B31F4B2
:1002E00020916300822F817090E0F8CF63B8E11411
:1002F000F10411F01F9A01C01F9888E893E1F401FE
:100300003197F1F70197D9F7B1E0EB260E9476001B
:100310001F930F93BF92AF920E94E3011F930F931D
:10032000DF92CF920E94CD0181E090E00FB6F89469
:10033000DEBF0FBECDBFD1CFA29FB001B39FC00122
:10034000A39F700D811D1124911DB29F700D811D01
:100350001124911D0895A1E21A2EAA1BBB1BFD01B9
:100360000DC0AA1FBB1FEE1FFF1FA217B307E40794
:10037000F50720F0A21BB30BE40BF50B661F771FEC
:10038000881F991F1A9469F76095709580959095CC
:100390009B01AC01BD01CF010895A0E0B0E0E3ED09
:1003A000F1E00C94A207AE014B5F5F4FFA0161913F
:1003B0007191AF0180913402909135020E94F90150
:1003C000E2E00C94BE07A0E0B0E0E9EEF1E00C94AE
:1003D000A207AE014B5F5F4FFA0161917191AF01CE
:1003E00080913202909133020E944B05E2E00C941E
:1003F000BE07ACE0B0E0EFEFF1E00C9492077C01B7
:100400006B018A01FC0117821682838181FFBDC1C5
:10041000CE0101964C01F7019381F60193FD859180
:1004200093FF81916F01882309F4ABC1853239F4C0
:1004300093FD859193FF81916F01853229F4B70176
:1004400090E00E94E006E7CF512C312C20E02032D2
:10045000A0F48B3269F030F4803259F0833269F4C1
:1004600020612CC08D3239F0803339F4216026C0F0
:100470002260246023C0286021C027FD27C030ED02
:10048000380F3A3078F426FF06C0FAE05F9E300D50
:100490001124532E13C08AE0389E300D1124332EC0
:1004A00020620CC08E3221F426FD6BC1206406C090
:1004B0008C3611F4206802C0883641F4F60193FDB1
:1004C000859193FF81916F018111C1CF982F9F7DFD
:1004D0009554933028F40C5F1F4FFFE3F9830DC050
:1004E000833631F0833771F0833509F05BC022C069
:1004F000F801808189830E5F1F4F44244394512C5F
:10050000540115C03801F2E06F0E711CF801A08093
:10051000B18026FF03C0652D70E002C06FEF7FEF52
:10052000C5012C870E9497062C0183012C852F770B
:10053000222E17C03801F2E06F0E711CF801A08066
:10054000B18026FF03C0652D70E002C06FEF7FEF22
:10055000C5012C870E948C062C012C852068222E38
:10056000830123FC1BC0832D90E048165906B0F48C
:10057000B70180E290E00E94E0063A94F4CFF501E2
:1005800027FC859127FE81915F01B70190E00E94D1
:10059000E00631103A94F1E04F1A51084114510429
:1005A00071F7E5C0843611F0893639F5F80127FF77
:1005B00007C060817181828193810C5F1F4F08C0E9
:1005C00060817181882777FD8095982F0E5F1F4F7E
:1005D0002F76722E97FF09C0909580957095619542
:1005E0007F4F8F4F9F4F2068722E2AE030E0A4018A
:1005F0000E943107A82EA81844C0853729F42F7E01
:10060000B22E2AE030E025C0F22FF97FBF2E8F36C0
:10061000C1F018F4883579F0B4C0803719F0883704
:1006200021F0AFC02F2F2061B22EB4FE0DC08B2D54
:100630008460B82E09C024FF0AC09F2F9660B92E8F
:1006400006C028E030E005C020E130E002C020E133
:1006500032E0F801B7FE07C0608171818281938129
:100660000C5F1F4F06C06081718180E090E00E5FDB
:100670001F4FA4010E943107A82EA818FB2DFF7759
:100680007F2E76FE0BC0372D3E7FA51450F474FEEE
:100690000AC072FC08C0372D3E7E05C0BA2C372D2B
:1006A00003C0BA2C01C0B52C34FF0DC0FE01EA0D09
:1006B000F11D8081803311F4397E09C032FF06C0FC
:1006C000B394B39404C0832F867809F0B39433FDB8
:1006D00013C030FF06C05A2CB31418F4530C5B1827
:1006E000B32CB31468F4B70180E290E03C870E9419
:1006F000E006B3943C85F5CFB31410F43B1801C069
:10070000312C34FF12C0B70180E390E03C870E9497
:10071000E0063C8532FF17C031FD03C088E790E05A
:1007200002C088E590E0B7010CC0832F867859F0AD
:1007300031FF02C08BE201C080E237FD8DE2B701DC
:1007400090E00E94E006A51438F4B70180E390E041
:100750000E94E0065A94F7CFAA94F401EA0DF11D25
:100760008081B70190E00E94E006A110F5CF332010
:1007700009F451CEB70180E290E00E94E0063A947D
:10078000F6CFF7018681978102C08FEF9FEF2C96FD
:10079000E2E10C94AE0720FD09C0FC0123FD05C079
:1007A00022FF02C07383628351834083089544FD16
:1007B00010C046FD10C0DB01FC01AA0FBB1FEE1FDD
:1007C000FF1F1094D1F76A0F7B1F8E1F9F1F31E010
:1007D00003C033E001C034E0660F771F881F991F04
:1007E0003150D1F7620F711D811D911D08950F9336
:1007F0001F93CF93DF938C01C8010E94A206EC01E6
:1008000097FD08C00E947906892BB1F7B801CE0187
:100810000E941807CE01DF91CF911F910F9108958B
:10082000A1E0B0E0E6E1F4E00C9498078C01C62E5C
:100830007A0129830E94A206AC01552729814B32F7
:10084000510521F04D32510569F42068CA94C11058
:1008500002C080E076C0C80129830E94A2062981D7
:1008600097FDF7CF322F3D7FD32E322F307349F5CE
:10087000803339F5BB24BA94BC0C09F44EC0C801CE
:1008800029830E94A206298197FD47C0382F3F7D0A
:10089000383569F48D2D8264D82ECA94CA94CC2040
:1008A000E1F1C8010E94A20697FF0BC036C026FFE7
:1008B00004C02D2D2260D22E03C03D2D3261D32ED7
:1008C000CB2C812C912C540120ED280F283080F066
:1008D000D4FE04C0B8010E9418071CC02A3040F0A2
:1008E000D6FEF8CF2F7D3FEE320F363098F72750E7
:1008F0004D2DC501B4010E94D7034B015C018D2D24
:100900008260D82ECA94CC2059F0C8010E94A20659
:1009100097FFDACFD1FC04C09CCF812C912C5401DD
:10092000D7FE08C0B094A09490948094811C911C30
:10093000A11CB11C2D2DB501A401C7010E94CB0340
:1009400081E02196ECE00C94B407A1E2B0E0EBEA80
:10095000F4E00C9496075C017A01CE0101966C01DB
:1009600080E2F60111928A95E9F7F501838040E073
:1009700050E0912C712C70E0A1E0B0E0F90183FC13
:10098000859183FE81918F01982F9F01811103C072
:1009900080E090E07CC08E3519F44115510549F195
:1009A000E72FF0E0E417F5073CF48D3559F18D326F
:1009B00019F4772001F103C0711001C0982E892F1E
:1009C0008695869586958601080F111D892F87705B
:1009D0003D0101C0660C8A95EAF7F80180818629FD
:1009E0008083991559F0991510F49F5FE8CF9150C5
:1009F000E6CF71E004C07724739401C0712C4F5F7F
:100A00005F4FBCCF772019F08E8180628E83711189
:100A100003C09924939416C0F6019E012F5D3F4FA9
:100A2000808180958193E217F307D1F7F2CFE1142B
:100A3000F10429F0F7018083C70101967C01615020
:100A4000912CF9F0C50169A30E94A20669A197FD46
:100A500016C0282F269526952695F601E20FF11D42
:100A6000208130E0AC014770552702C035952795AD
:100A70004A95E2F720FDDBCFB5010E9418079110DF
:100A800087CFE114F10411F0F7011082C801A1969B
:100A9000EEE00C94B2074F925F927F928F929F92FA
:100AA000AF92BF92CF92DF92EF92FF920F931F937C
:100AB000CF93DF931F92CDB7DEB76C012B015A01A4
:100AC000FC0117821682712CF601F380F201F3FC0F
:100AD0008591F3FE8191382F2F01882309F4F3C00B
:100AE00090E039830E9479063981892B21F0C60173
:100AF0000E94F703E9CF353241F4F201F3FC35915E
:100B0000F3FE31912F01353269F4C60139830E9419
:100B1000A206398197FDD5C03817B1F2B6010E94FF
:100B20001807D1C03A3239F4F3FC3591F3FE319114
:100B30002F0151E001C050E0420110E020ED230FF1
:100B40002A3090F45260612F70E080E090E040E243
:100B500059830E94D703162FF401F3FC3591F3FE5D
:100B600031914F015981EACF052F232F240151FFE5
:100B700003C0111102C0A7C01FEF383619F03C3670
:100B800059F011C0F401F3FC2591F3FE21912F01DE
:100B9000283649F4052F08600460F201F3FC259122
:100BA000F3FE21912F01222309F48DC0622F70E002
:100BB0008CE890E029830E9481062981892B09F421
:100BC00082C000FD07C0F501E080F180C5010296FA
:100BD0005C0102C0E12CF12C2E3651F4F601468165
:100BE000578160E070E0202FC7010E94CB036CCFDB
:100BF000233691F401FF11E0C6010E94A20697FD81
:100C000060C0E114F10429F0F7018083C701019667
:100C10007C01115089F751C02B3559F49201A7017D
:100C2000612FC6010E94A5042C01009709F045C060
:100C30003FC0C60129830E94F703298197FD41C067
:100C40002F3659F128F4243631F1293649F127C0DD
:100C5000233769F02537F9F022C0E114F10429F0B7
:100C6000F7018082C70101967C01115071F0C60125
:100C70000E94A2064C0197FD08C00E947906892BAC
:100C800061F3B601C4010E941807E114F104A9F050
:100C9000F701108212C0006203C0006101C000644D
:100CA000202FA701612FC6010E941004811105C0E9
:100CB000F6018381807329F406C000FD05CF73948B
:100CC00003CF772019F0872D90E002C08FEF9FEFC0
:100CD0000F90DF91CF911F910F91FF90EF90DF90D8
:100CE000CF90BF90AF909F908F907F905F904F90EC
:100CF0000895911114C1803219F089508550D0F7B0
:100D00000895FC010590061621F00020D9F7C001D6
:100D100008953197CF010895FC010590615070400E
:100D20000110D8F7809590958E0F9F1F0895FC01B4
:100D30006150704001900110D8F7809590958E0F0A
:100D40009F1F0895CF93DF93EC012B8120FF33C0C9
:100D500026FF0AC02F7B2B838E819F8101969F8364
:100D60008E838A8190E029C022FF0FC0E881F9813B
:100D70008081992787FD9095009719F420622B8335
:100D80001AC03196F983E8830EC0EA85FB85099580
:100D900097FF09C02B81019611F080E201C080E12C
:100DA000822B8B8308C02E813F812F5F3F4F3F8373
:100DB0002E83992702C08FEF9FEFDF91CF91089587
:100DC0000F931F93CF93DF93FB01238121FD03C07A
:100DD0008FEF9FEF28C022FF16C0468157812481E4
:100DE00035814217530744F4A081B1819D012F5FE3
:100DF0003F4F318320838C93268137812F5F3F4F74
:100E00003783268310C0EB01092F182F0084F1854A
:100E1000E02D0995892BE1F68E819F8101969F83B4
:100E20008E83812F902FDF91CF911F910F91089585
:100E3000FB01238120FF12C026FD10C08F3F3FEF32
:100E4000930761F082832F7D20642383268137817D
:100E50002150310937832683992708958FEF9FEF1B
:100E60000895FA01AA27283051F1203181F1E89440
:100E70006F936E7F6E5F7F4F8F4F9F4FAF4FB1E08D
:100E80003ED0B4E03CD0670F781F891F9A1FA11D88
:100E9000680F791F8A1F911DA11D6A0F711D811D89
:100EA000911DA11D20D009F468943F912AE0269F4E
:100EB00011243019305D3193DEF6CF010895462FAD
:100EC0004770405D4193B3E00FD0C9F7F6CF462F8E
:100ED0004F70405D4A3318F0495D31FD40524193F7
:100EE00002D0A9F7EACFB4E0A695979587957795B4
:100EF0006795BA95C9F700976105710508959B013B
:100F0000AC010A2E06945795479537952795BA95C3
:100F1000C9F7620F731F841F951FA01D089599279D
:100F2000882708952F923F924F925F926F927F92FF
:100F30008F929F92AF92BF92CF92DF92EF92FF92E9
:100F40000F931F93CF93DF93CDB7DEB7CA1BDB0B95
:100F50000FB6F894DEBF0FBECDBF09942A8839883A
:100F600048885F846E847D848C849B84AA84B98441
:100F7000C884DF80EE80FD800C811B81AA81B9814D
:100F8000CE0FD11D0FB6F894DEBF0FBECDBFED0161
:060F90000895F894FFCF64
:100F96000000000300000000060114010000284EB6
:100FA600554C4C2900000000000000000000000025
:100FB600000000000000000000000000000000002B
:100FC600000000000000000000000000000000001B
:100FD600000000000000000000000000000000000B
:100FE60000000000000000000000000000000000FB
:100FF60000000000000000000000000000000000EB
:1010060000000000000000000000000000000000DA
:1010160000000000000000000000000000000000CA
:1010260000000000000000000000000000000000BA
:1010360000000000000000000000000000000000AA
:10104600000000000000000000000000000000009A
:10105600000000000000000000000000000000008A
:10106600000000000000000000000000000000007A
:10107600000000000000000000000000000000006A
:10108600000000000000000000000000000000005A
:101096000000000000000000000000000000537582
:1010A60070706C7920566F6C746167653A20256C98
:1010B60075206D560A00257300476F743A20257314
:0210C6000A001E
:00000001FF
