:100000000C94EB000C9408010C9408010C9408016A
:100010000C9408010C9408010C9408010C94EC0158
:100020000C9408010C9408010C9408010C9408012C
:100030000C940A010C9424010C9408010C940801FE
:100040000C9408010C9408010C9408010C9408010C
:100050000C9408010C9408010C9408010C940801FC
:100060000C9408010C9408010C9408010C940801EC
:100070000C9408010C9408010C9408010C940801DC
:100080000C9408010C943E010C9408016F64797380
:1000900073656100534623343637656D766300011E
:1000A00002030405060708090A0B0C0D00000000F6
:1000B0000000000000000000000000000000000040
:1000C0000000000000000000000000000000000030
:1000D0000000006E616E00696E660000407A10F3E9
:1000E0005A00A0724E18090010A5D4E80000E87666
:1000F00048170000E40B54020000CA9A3B000000BD
:10010000E1F505000080969800000040420F0000D5
:1001100000A08601000000102700000000E8030096
:100120000000006400000000000A00000000000160
:1001300000000000002C76D888DC674F0823DFC160
:10014000DFAE59E1B1B796E5E3E453C63AE651991B
:100150007696E8E6C28426EB898C9B62ED407C6F44
:10016000FCEFBC9C9F40F2BAA56FA5F490055A2AFB
:10017000F75C936B6CF9676DC11BFCE0E40D47FE07
:10018000F520E6B500D0ED902E03009435770500FC
:1001900080841E080000204E0A000000C80C333383
:1001A00033330F986E12831141EF8D2114893BE692
:1001B0005516CFFEE6DB18D1844B381BF77C1D901B
:1001C0001DA4BBE424203284725E228100C9F12484
:1001D000ECA1E53D270011241FBECFEFD0E1DEBF2B
:1001E000CDBF11E0A0E0B1E0E6E9F0E202C0059089
:1001F0000D92AA3FB107D9F713E0AAEFB1E001C011
:100200001D92AE3CB107E1F70E94C9010C94491060
:100210000C9400001F920F920FB60F9211248F932F
:10022000EF93FF93E1E6F0E0808180688083E2E66F
:10023000F0E0808180688083FF91EF918F910F9033
:100240000FBE0F901F9018951F920F920FB60F922E
:1002500011248F93EF93FF93E1E6F0E080818068B3
:100260008083E2E6F0E080818F778083FF91EF91D9
:100270008F910F900FBE0F901F9018951F920F92A5
:100280000FB60F9211240F900FBE0F901F9018956C
:10029000DF92EF92FF920F931F93DF93CF9300D0E3
:1002A000CDB7DEB780E090E0BE016F5F7F4F0E9468
:1002B000300469817A8180E090E073708070907082
:1002C00020E03AE040E050E00E94F40D2FEF33E0F0
:1002D00040E050E00E94130ED52E7901042F152F17
:1002E00000D000D000D080E091E0EDB7FEB792835F
:1002F0008183D801C70122E0880F991FAA1FBB1F65
:100300002A95D1F783839483A583B6830E94A10F96
:100310008DB79EB706960FB6F8949EBF0FBE8DBFE1
:100320000E945404B701802F9D2D0F900F90CF9104
:10033000DF911F910F91FF90EF90DF90089583E37D
:1003400090E00E9459040E9429040E94E8038091D1
:10035000630080FFFCCF0E9418040E940C038CE114
:100360009CE028EC30E0F9013197F1F70197D9F7DB
:1003700082B1806B82B91F9883B1806983B91D985F
:100380000E94D60889B7806489BF789480E090E0A5
:100390000895CF93DF930E949F0120E533ECC8ECD2
:1003A000D0E005C0CE010197F1F721503040211572
:1003B0003105C1F70E9448010E942F02892B29F4C0
:1003C0000E945B0202C00E9479060E9409068130E9
:1003D000D1F720E533ECE6CF1F920F920FB60F92C4
:1003E00011242F933F934F935F936F937F938F933A
:1003F0009F93AF93BF93EF93FF9388E191E00E94A7
:10040000B60F0E944805FF91EF91BF91AF919F9168
:100410008F917F916F915F914F913F912F910F90AD
:100420000FBE0F901F9018958AE090E09093FB010B
:100430008093FA0182E090E09093FD018093FC01AB
:1004400080E465E040E050E10E941503892B19F437
:1004500020E030E002C02FEF3FEFC9010895DF93A5
:10046000CF9300D0CDB7DEB780E460E04FE959E329
:100470000E941503892B19F02FEF3FEF16C080E47F
:1004800060E0AE014F5F5F4F0E946703892B19F058
:100490002EEF3FEF0AC089819A818F59994319F451
:1004A00020E030E002C02DEF3FEFC9010F900F9028
:1004B000CF91DF910895CF92DF92EF92FF920F9349
:1004C0001F93DF93CF9300D000D0CDB7DEB780E489
:1004D00061E0AE014F5F5F4F0E946703892B19F007
:1004E00086E391E04FC000D000D080E691E0EDB708
:1004F000FEB79283818389819A81948383830E944A
:10050000A10F00D00DB71EB70F5F1F4F85E791E019
:10051000EDB7FEB79283818329813A8137FF03C00B
:10052000309521953F4FB901882777FD8095982F09
:100530000E947E0920E030E04AEF56E40E94140950
:1005400020E030E040EA53E40E940A0AF8016283A6
:100550007383848395830E94A10F8DB79EB70696FF
:100560000FB6F8949EBF0FBE8DBF0E94140280E4A8
:1005700064E0AE014D5F5F4F0E946703892B39F045
:1005800082E991E00E94B60F2FEF3FEF37C000D015
:1005900000D000D0CDB6DEB60894C11CD11C86EBCD
:1005A00091E0EDB7FEB7928381836B817C818827D0
:1005B00077FD8095982F0E947E097B018C016091C8
:1005C000FA017091FB0180E090E00E947C099B01A0
:1005D000AC01C801B7010E941409F601628373835C
:1005E000848395830E94A10F20E030E08DB79EB7F1
:1005F00006960FB6F8949EBF0FBE8DBFC9010F902F
:100600000F900F900F90CF91DF911F910F91FF905E
:10061000EF90DF90CF90089588E080937000E4E73A
:10062000F0E08081846080830895982F84EA80932D
:1006300074008091740087FFFCCF80917100887FE7
:10064000883009F040C0990F9093730085E880933B
:1006500074008091740087FFFCCF80917100887FC7
:10066000883189F56093730084E8809374008091E9
:10067000740087FFFCCF80917100887F883219F564
:1006800028E030E064E8CA01022E02C09695879502
:100690000A94E2F780937300609374008091740071
:1006A00087FFFCCF80917100887F883261F42850E9
:1006B00030408FEF283F380731F784E9809374008A
:1006C00020E030E002C02FEF3FEFC9010895282F4E
:1006D000FA0184EA809374008091740087FFFCCF54
:1006E00080917100887F883009F06EC0822F880F5A
:1006F0008093730084E8809374008091740087FF76
:10070000FCCF80917100887F883109F05DC06093D3
:10071000730084E8809374008091740087FFFCCF9D
:1007200080917100887F883209F04EC084E98093FF
:10073000740080E197E20197F1F784EA80937400F6
:100740008091740087FFFCCF80917100887F883092
:10075000D9F5220F21602093730084E88093740000
:100760008091740087FFFCCF80917100887F803476
:1007700059F584EC809374008091740087FFFCCF5E
:1007800080917100887F8035F9F480917300382F53
:1007900020E03183208384E880937400809174008A
:1007A00087FFFCCF80917100887F883569F4809144
:1007B000730090E0282B392B3183208384E98093C8
:1007C000740020E030E002C02FEF3FEFC901089530
:1007D00080916400826080936400809165008260F3
:1007E0008093650088EE93E028EC30E0F9013197C2
:1007F000F1F70197D9F7809165008D7F80936500AF
:1008000088EE93E028EC30E0F9013197F1F7019799
:10081000D9F78091650082608093650088EE93E04F
:1008200028EC30E0F9013197F1F70197D9F70895F5
:100830008EB588608EBD8EB585608EBD8CE98ABD13
:1008400088E088BD87B7806187BF87B7886087BF2A
:1008500008953E9A3F9A87B1807E87B9379A089566
:10086000FB0197B18F71892B87B9369A86B124B174
:1008700045B1942F80E030E0822B932B91838083CD
:1008800008951F93182F8A3019F48DE00E944104B7
:100890005D9BFECF1CB980E090E01F9108955F9BA7
:1008A000FECF8CB190E0089501C08CB15F99FDCF6F
:1008B00008959AB198619AB95798E5E9F0E0908166
:1008C0009F7B90839081966090831092900089B96D
:1008D00084ED91E09093CB038093CA039093C90376
:1008E0008093C8030895DC01C09820E030E00BC07D
:1008F000FD01E20FF31F80818FB9779BFECF8FB18F
:1009000080832F5F3F4F2617370790F34111C09A1E
:100910000895DF92EF92FF920F931F9310E02EE362
:10092000D22E9EE2E92E8FE3F82E0FEFD092050231
:1009300010920602E092070285E092E063E070E028
:1009400041E00E947304F0920502112311F08FE040
:1009500001C080E8809306020093070285E092E0E0
:1009600063E070E041E00E947304113011F011E087
:10097000DDCF8EE380930502109206028AE2809317
:10098000070285E092E063E070E041E00E947304BA
:100990001FE710930502109206021092070285E0ED
:1009A00092E063E070E041E00E94730480910602EF
:1009B00084FFEFCF1FE610930502109206021092FB
:1009C000070285E092E063E070E041E00E9473047A
:1009D00080910602882321F480910702882359F32D
:1009E0001F910F91FF90EF90DF9008950F931F9349
:1009F00005E012E08EE68093050210920602109246
:100A00000702C80163E070E041E00E9473048DE2D8
:100A1000809305028FEF8093060280930702109265
:100A2000080210920902C80165E070E041E00E94EE
:100A300073041F910F9108950F931F93082F162F82
:100A400082E4809305021092060285E092E062E063
:100A500070E041E00E94730481E0809305022091E0
:100A60000602112311F0902F01C090E0802F809595
:100A70008223982B909307020093060285E092E070
:100A800063E070E041E00E9473041F910F910895AC
:100A900089B78F7B89BF81E080930A02089581E442
:100AA00080930502109206021092070285E092E000
:100AB00063E070E041E00E94730421E0909107023E
:100AC00080910602982397FF0EC02093050280E8CC
:100AD0008093060285E092E062E070E041E00E94CF
:100AE000730485E30FC096FF3DC02093050280E4A8
:100AF0008093060285E092E062E070E041E00E94AF
:100B0000730483E3806480930502109206021092BE
:100B1000070285E092E063E070E041E00E94730428
:100B20007091060260E08091070290E0682B792BBB
:100B30007F70E0911002F091110280E880836F5F76
:100B40007F4FCF0141E00E94730480ED8093050246
:100B500085E092E061E070E041E00E94730481E092
:100B600080930B0210920A0289B7806489BF0895AE
:100B7000CF92DF92EF92FF920F931F938C016B0144
:100B800035E0E32E32E0F32E80EA8093050281E027
:100B900080930602809307021092080210920902C5
:100BA000C70165E070E040E00E9473048AEAF80142
:100BB0008683878383E08087138612861186C80127
:100BC000B60141E00E94730480EC80930502C701E6
:100BD00061E070E041E00E9473041F910F91FF906B
:100BE000EF90DF90CF90089580910E02882319F442
:100BF00020E030E006C010920E02209112023091E7
:100C00001302C901089510920E02089580930D02F7
:100C10000895809104020895909311028093100228
:100C2000709313026093120208958EEF91E008957D
:100C3000CF93DF93EB01E0911002F09111029589BF
:100C4000868988839983DF01159686E00D9001924D
:100C50008150E1F78091100290911102DC0116960B
:100C6000FC013B9686E001900D928150E1F72091C6
:100C7000100230911102B901645F7F4F235E3F4F34
:100C800048815981CB01B9010E94610F8881998106
:100C90000C9699838883DF91CF9108950F931F93CA
:100CA0008C0183E0D8018C938DE011968C93119781
:100CB00012961C9212978091340213968C93F8012D
:100CC000349680E2DF011D928A95E9F74091340263
:100CD000CF016CE870E050E00E94440FC801849698
:100CE0006FE970E044E350E00E94440F1F910F91C0
:100CF00008950F931F93CF93DF9380910D02882364
:100D000099F080910F02882379F46091120270911A
:100D1000130280911002909111020E94B805109266
:100D20000D0281E080930F0280910A02882311F066
:100D30000E944F0580910B02882309F4B9C0E0910D
:100D40001002F09111028181823081F0833020F411
:100D5000813009F0ABC007C0833009F47CC0843017
:100D600009F0A4C07AC010920F02A0C09381913004
:100D700009F09CC082818C3009F45FC08D3038F45A
:100D8000883009F476C08A3009F090C054C08331AD
:100D900009F45DC0843109F46BC0803109F086C06C
:100DA00087818093FE0180858093FF0181858093F8
:100DB00000028285809301028385809302028485EC
:100DC0008093030286E080930C028DB79EB70E9746
:100DD0000FB6F8949EBF0FBE8DBFEDB7FEB731962C
:100DE00082EE91E0ADB7BEB712969C938E931197A9
:100DF0008091FE01828313828091FF01848315829A
:100E0000809100028683178280910102808711867B
:100E1000809102028287138680910302848715865F
:100E20000E94A10FCDB7DEB72E960FB6F894DEBFA5
:100E30000FBECDBF3BC088E01CC0A4E1B2E0379636
:100E400080E201900D928150E1F787E012C0C69ACE
:100E5000909304022BC084E00CC08281813030F179
:100E6000833018F0843011F507C0C6981092040240
:100E700083E080930C021AC0938180E0248130E0EB
:100E8000282B392B2130310519F02530310521F47B
:100E9000C698109204020AC02230310519F026309B
:100EA000310521F4C69A81E08093040210920B026E
:100EB00090910C02943009F466C1953040F4923060
:100EC00091F0933008F013C1992359F06AC197301B
:100ED00009F49FC0983009F4DAC0963009F061C176
:100EE00025C082E05CC1E0911002F091110280EB1C
:100EF0008083E0911002F09111029183E091100241
:100F0000F091110280E18283E0911002F0911102D0
:100F10001382E0911002F091110281E084838091AC
:100F200010029091110265E070E01AC180913401C5
:100F3000813041F0813020F0843008F032C122C08D
:100F400088E02DC1E0911002F091110280EB8083C6
:100F5000E0911002F091110282E08183E091100291
:100F6000F09111028AE08283809110029091110227
:100F700003960E944E0680911002909111026BE53B
:100F800070E0EEC0E0911002F091110280EB8083DE
:100F9000E0911002F091110282E08183E091100251
:100FA000F09111028CE082830091100210911102E5
:100FB000F8013396D80113961C92809135028183F3
:100FC0008091340282831382F801379680E2EF0128
:100FD00019928A95E9F740913402CF016CE870E0EC
:100FE00050E00E94440F095D1F4F80E4F801119208
:100FF0008A95E9F740913502C80164E970E050E054
:101000000E94440F809110029091110267E670E0F7
:10101000A7C0E0911002F091110280EB8083E09173
:101020001002F091110282E08183E0911002F091B0
:10103000110288E082830091100210911102D80100
:101040001396E8011B828091340211968C931197BC
:10105000F801359680E2EF0119928A95E9F7119629
:101060004C91CF016CE870E050E00E94440FD80131
:101070009596E4E1F2E080E201900D928150E1F773
:10108000809110029091110265E470E069C0E091D6
:101090001002F091110280EB8083E0911002F09138
:1010A000110282E08183E0911002F091110284E14B
:1010B0008283E0911002F091110281E08383E0913C
:1010C0001002F09111028AE08483E0911002F09105
:1010D000110283E18583E0911002F09111021682E2
:1010E000809110029091110267E070E039C0E091A8
:1010F0001002F0911102EF01239680EB8083A09102
:101100001002B091110282E011968C93A09110020E
:10111000B091110283E112968C9380913401838304
:10112000809134028983359680E2DF011D928A9591
:10113000E9F740913402CF016CE870E050E00E9482
:10114000440F1BA21AA280913501813011F0823028
:1011500009F48CA3809110029091110269E270E071
:1011600041E00E947304E0911002F091110280ECC2
:101170008083809110029091110261E070E041E063
:101180000E9473040BC0809110029091110262E1E1
:1011900072E00E94180681E080930E0285E0809341
:1011A0000C02DF91CF911F910F91089587B387644F
:1011B00087BBBB9891E098BB80E58DB99EB98EB195
:1011C0008FB110920A0210920B0210920C02109230
:1011D000040210920D0210920E0210920F0286E38A
:1011E00092E0909311028093100280E991E0909335
:1011F0001302809312020E9489040E94F6048FEF6A
:1012000060E00E941C0580EC61E00E941C058CE8F7
:1012100090E00E944D0F8093340284E990E00E9498
:101220004D0F8093350208950CD0BAC0B2D040F073
:10123000A9D030F021F45F3F19F09BC05111E4C0F8
:101240009EC0BFD098F39923C9F35523B1F3951BE2
:10125000550BBB27AA2762177307840738F09F5FD7
:101260005F4F220F331F441FAA1FA9F333D00E2E46
:101270003AF0E0E830D091505040E695001CCAF7B3
:1012800029D0FE2F27D0660F771F881FBB1F261778
:1012900037074807AB07B0E809F0BB0B802DBF014B
:1012A000FF2793585F4F2AF09E3F510568F061C0B9
:1012B000ABC05F3FECF3983EDCF38695779567957E
:1012C000B795F7959F5FC9F7880F911D96958795FC
:1012D00097F90895E1E0660F771F881FBB1F62171B
:1012E00073078407BA0720F0621B730B840BBA0BD9
:1012F000EE1F88F7E0950895E89409C097FB3EF447
:1013000090958095709561957F4F8F4F9F4F992352
:10131000A9F0F92F96E9BB279395F69587957795D0
:101320006795B795F111F8CFFAF4BB0F11F460FF90
:101330001BC06F5F7F4F8F4F9F4F16C0882311F0E8
:1013400096E911C0772321F09EE8872F762F05C0FC
:10135000662371F096E8862F70E060E02AF09A9597
:10136000660F771F881FDAF7880F9695879597F98C
:10137000089597F99F6780E870E060E008959FEF17
:1013800080EC089500240A9416161706180609061C
:10139000089500240A9412161306140605060895EB
:1013A000092E0394000C11F4882352F0BB0F40F473
:1013B000BF2B11F460FF04C06F5F7F4F8F4F9F4FB3
:1013C000089557FD9058440F551F59F05F3F71F035
:1013D0004795880F97FB991F61F09F3F79F087959C
:1013E0000895121613061406551FF2CF4695F1DF25
:1013F00008C0161617061806991FF1CF86957105B5
:10140000610508940895E894BB2766277727CB01E8
:1014100097F908950BD0C4CFB5DF28F0BADF18F0E4
:10142000952309F0A6CFABCF1124EECFCADFA0F3EE
:10143000959FD1F3950F50E0551F629FF001729F69
:10144000BB27F00DB11D639FAA27F00DB11DAA1F88
:10145000649F6627B00DA11D661F829F2227B00DD5
:10146000A11D621F739FB00DA11D621F839FA00D60
:10147000611D221F749F3327A00D611D231F849FB0
:10148000600D211D822F762F6A2F11249F57504007
:101490008AF0E1F088234AF0EE0FFF1FBB1F661FA2
:1014A000771F881F91505040A9F79E3F510570F05B
:1014B00060CFAACF5F3FECF3983EDCF3869577953B
:1014C0006795B795F795E7959F5FC1F7FE2B880F56
:1014D000911D9695879597F90895A1E1B0E0E3E70E
:1014E000FAE00C94350E3C017F876E876A01FC019F
:1014F00017821682838181FD03C06FEF7FEF6FC378
:101500009E012F5F3F4F398B288BF3012381EE859E
:10151000FF8523FD859123FF8191FF87EE87882337
:1015200009F45AC3853251F4EE85FF8523FD859178
:1015300023FF8191FF87EE87853229F490E0B30184
:101540000E94750FE2CF982F10E088249924103262
:10155000B0F49B3269F09C3228F4903251F093320F
:1015600071F40BC09D3239F0903349F4116028C0FA
:101570001260146025C0186023C0106121C017FDDF
:101580002AC0892F80538A3078F416FF06C0FAE00B
:101590009F9E902C1124980E13C03AE0839E802CBD
:1015A0001124880E10620CC09E3221F416FD14C363
:1015B000106406C09C3611F4106802C0983659F4C5
:1015C000EE85FF8523FD959123FF9191FF87EE879F
:1015D000992309F0BCCF892F8554833020F4812FC3
:1015E0008061905E07C0892F8556833008F09FC1C7
:1015F000812F8F7E86FD02C076E0972E6FE3F62E58
:10160000F822953619F4F0E4FF2A07C0963619F44B
:1016100020E8F22A02C091109A94F7FE0AC03BE338
:10162000391518F45CE3B52E02C0B92CB39427E049
:1016300009C047E0491520F4BB2447E0942EF7CFBA
:10164000292DBB24C60104969D878C87F6016081F5
:10165000718182819381AE014F5F5F4F0B2D0E949C
:101660006C0E6C010981202E332400FF04C003FDA1
:1016700002C01DE209C0F1FE02C01BE205C0F2FC7F
:1016800002C010E001C010E2C1018C709070892B83
:10169000B9F1112311F483E001C084E0881510F042
:1016A00088240AC0881AF3FC07C080E290E0B301E6
:1016B0000E94750F8A94C9F7112329F0812F90E0B9
:1016C000B3010E94750F23FE03C003ED10E00EC0AE
:1016D00007ED10E00BC0E114F10409F0805290E036
:1016E000B3010E94750F0F5F1F4F05C0EF2CFF2441
:1016F000F0E1EF22FF24F8018491882361F714C1FF
:10170000F7FE12C0BC0C24FE04C08A81813309F4A8
:10171000BA941B141CF0BB24B3942DC0F8E0FB1545
:1017200050F538E0B32E27C0F6FC25C0892D90E097
:101730008C159D054CF02CEFC2162FEFD20624F02D
:1017400030E8F32A01C09A94992049F0E2E0F0E0F1
:10175000EC0FFD1FE90DF11D80818033A1F3F7FE31
:101760000AC0B92CB394892D90E0C816D90614F09C
:10177000992401C09C18F7FC03C025E030E009C0A3
:101780001C141D041CF021E030E003C096012F5F03
:101790003F4F112311F02F5F3F4F992029F0892DE2
:1017A00090E00196280F391F882D90E028173907FF
:1017B00014F0882401C0821A4F2C5524C20189706C
:1017C0009070892B39F008C080E290E0B3010E944C
:1017D000750F8A948820C1F7112329F0812F90E09A
:1017E000B3010E94750F43FE07C008C080E390E07C
:1017F000B3010E94750F8A948820C1F7F7FE46C096
:101800008601D7FE02C000E010E076010894E11CDA
:10181000F11CE01AF10A41E050E04C0F5D1FE40EAC
:10182000F51E26014B185108892D90E0AA24BB24EF
:10183000A81AB90A5FEF0F3F150729F48EE290E06E
:10184000B3010E94750FC016D10634F04016510640
:101850001CF4F701808101C080E30150104008941E
:10186000E11CF11C0A151B052CF090E0B3010E944D
:10187000750FE0CF0C151D0539F49A81963318F4D5
:10188000953311F424FE81E390E04BC08A818133CB
:1018900009F00F7E90E0B3010E94750F9920A1F02E
:1018A0008EE290E0B3010E94750F12E0E1E0F0E0FB
:1018B000EC0FFD1FE10FF11D1F5F808190E0B30170
:1018C0000E94750F9A9491F744FC03C085E690E05E
:1018D00002C085E490E0B3010E94750FD7FC05C0FB
:1018E000C114D10441F404FF06C0D094C194D108BE
:1018F000D3948DE201C08BE290E0B3010E94750F9A
:1019000080E305C08F5F26EF3FEFC20ED31E3AE0A3
:10191000C316D104BCF790E0B3010E94750FC60155
:10192000C096B3010E94750FCC84DD8452C19336FA
:1019300031F0933799F0933509F059C023C0F6017F
:10194000808189835E010894A11CB11C22E030E0F3
:10195000C20ED31E21E0E22EF12C12C0F601A080AF
:10196000B18016FD03C06FEF7FEF02C0692D70E0FC
:1019700022E030E0C20ED31EC5010E946A0F7C0136
:101980001F7713C0F601A080B18016FD03C06FEF72
:101990007FEF02C0692D70E022E030E0C20ED31E5E
:1019A000C5010E94560F7C01106813FF07C01BC0C1
:1019B00080E290E0B3010E94750F8A94882D90E038
:1019C000E816F906A8F30FC0F50117FD859117FF7A
:1019D00081915F0190E0B3010E94750F81108A949C
:1019E0000894E108F108E114F10471F7F2C09436AB
:1019F00011F0993689F517FF08C0F6012081318171
:101A00004281538184E090E00AC0F6018081918197
:101A10009C01442737FD4095542F82E090E0C80E8A
:101A2000D91E9FE6F92EF12257FF09C05095409527
:101A3000309521953F4F4F4F5F4F90E8F92ACA01EB
:101A4000B901AE014F5F5F4F2AE030E00E94EB0F1B
:101A5000E82EE889EE1A41C0953721F41F7E2AE06E
:101A600030E01CC0197F9F3661F0903720F4983524
:101A700009F0B2C00FC0903739F0983709F0ACC008
:101A800004C028E030E00AC0106114FD146020E1B9
:101A900030E004C014FD166020E132E017FF08C0FA
:101AA000F601608171818281938144E050E008C039
:101AB000F60180819181BC0180E090E042E050E03D
:101AC000C40ED51EAE014F5F5F4F0E94EB0FE82E94
:101AD0005889E51A8FE7F82EF122F6FE0BC08EEF3B
:101AE000F822E91438F4F4FE07C0F2FC05C09FEEBA
:101AF000F92202C01E2D01C0192DF4FE0DC0FE01F9
:101B0000EE0DF11D8081803319F4E9EEFE2208C04C
:101B10001F5FF2FE05C003C08F2D867809F01F5F9E
:101B20000F2DF3FC14C0F0FE0FC0181510F09E2C02
:101B30000BC09E2C980C911A182D06C080E290E0E4
:101B4000B3010E94750F1F5F1815C0F304C018156C
:101B500010F4811A01C0882404FF0FC080E390E0D4
:101B6000B3010E94750F02FF1DC001FD03C088E78D
:101B700090E00EC088E590E00BC0802F867891F051
:101B800001FF02C08BE201C080E2F7FC8DE290E031
:101B9000B3010E94750F06C080E390E0B3010E947C
:101BA000750F9A94E914C0F3EA94E1E0F0E0EC0FC9
:101BB000FD1FEE0DF11D808190E0B3010E94750FB5
:101BC000EE2091F706C080E290E0B3010E94750F0D
:101BD0008A948820C1F799CCF30166817781CB0183
:101BE0006196E2E10C94510E629FD001739FF00167
:101BF000829FE00DF11D649FE00DF11D929FF00D9D
:101C0000839FF00D749FF00D659FF00D9927729FD3
:101C1000B00DE11DF91F639FB00DE11DF91FBD015E
:101C2000CF0111240895A1E21A2EAA1BBB1BFD01AE
:101C30000DC0AA1FBB1FEE1FFF1FA217B307E407AB
:101C4000F50720F0A21BB30BE40BF50B661F771F03
:101C5000881F991F1A9469F76095709580959095E3
:101C60009B01AC01BD01CF0108952F923F924F928D
:101C70005F926F927F928F929F92AF92BF92CF921C
:101C8000DF92EF92FF920F931F93CF93DF93CDB725
:101C9000DEB7CA1BDB0B0FB6F894DEBF0FBECDBF9D
:101CA00009942A88398848885F846E847D848C846E
:101CB0009B84AA84B984C884DF80EE80FD800C8177
:101CC0001B81AA81B981CE0FD11D0FB6F894DEBF5A
:101CD0000FBECDBFED010895283008F027E033276F
:101CE000DA01990F311D87FD91600096610571053C
:101CF00039F432602E5F3D9330E32A95E1F7089581
:101D00009F3F30F080387105610509F03C5F3C5F12
:101D10003D93913008F08068911DDF93CF931F931E
:101D20000F93FF92EF92192F987F9695E92F969532
:101D30009695E90FFF27EB5CFE4F99273327EE249A
:101D4000FF24A701E70105900894079428F4360FB3
:101D5000E71EF81E491F511D660F771F881F991F28
:101D60000694A1F70590079428F4E70EF81E491F82
:101D7000561FC11D770F881F991F661F0694A1F774
:101D80000590079428F4F80E491F561FC71FD11D50
:101D9000880F991F661F771F0694A1F70590079477
:101DA00020F4490F561FC71FD81F990F661F771FB2
:101DB000881F0694A9F784911095177041F0D69565
:101DC000C79557954795F794E7941A95C1F7EBEDAA
:101DD000F0E0689415901591359165919591059075
:101DE0007FE27395E118F10A430B560BC90BD0093A
:101DF000C0F7E10CF11E431F561FC91FD01D7EF412
:101E0000703311F48A95E6CFE894015030F0080F52
:101E10000AF40027021708F4202F2395022F7A33A3
:101E200028F079E37D932A95E9F710C07D932A95F0
:101E300089F6069497956795379517951794E11845
:101E4000F10A430B560BC90BD00998F023957E91EC
:101E500073957A3308F070E37C932013B8F77E9182
:101E600070617D9330F0839571E37D9370E32A95E3
:101E7000E1F71124EF90FF900F911F91CF91DF9127
:101E8000992787FD90950895FB01DC0102C005901C
:101E90000D9241505040D8F70895FC010590002064
:101EA000E9F7809590958E0F9F1F0895FC0105908E
:101EB000615070400110D8F7809590958E0F9F1F4C
:101EC0000895FB01DC0102C001900D924150504089
:101ED000D8F70895FC016150704001900110D8F7C7
:101EE000809590958E0F9F1F08950F931F93CF930A
:101EF000DF938C01EB018B8181FF1BC082FF0DC042
:101F00002E813F818C819D812817390764F4E881F7
:101F1000F9810193F983E88306C0E885F985802F6C
:101F20000995892B31F48E819F8101969F838E8341
:101F300002C00FEF1FEFC801DF91CF911F910F91EA
:101F40000895A0E0B0E0E7EAFFE00C94450EFE0142
:101F50003596619171918091CA039091CB03AF0145
:101F60000E946D0A2096E2E00C94610E0F931F937D
:101F7000CF93DF938C01E091CA03F091CB0383816F
:101F800081FF21C0C0E0D0E00DC0E091CA03F09114
:101F9000CB0320853185BF01F9010995892B11F00B
:101FA000CFEFDFEFF80181918F01882371F7E09186
:101FB000CA03F091CB03208531858AE0BF01F90186
:101FC0000995892B11F0CFEFDFEFCE01DF91CF9193
:101FD0001F910F910895FA01AA27283051F120315D
:101FE00081F1E8946F936E7F6E5F7F4F8F4F9F4FAD
:101FF000AF4FB1E03ED0B4E03CD0670F781F891FEF
:102000009A1FA11D680F791F8A1F911DA11D6A0FBC
:10201000711D811D911DA11D20D009F468943F916F
:102020002AE0269F11243019305D3193DEF6CF016E
:102030000895462F4770405D4193B3E00FD0C9F734
:10204000F6CF462F4F70405D4A3318F0495D31FDA1
:102050004052419302D0A9F7EACFB4E0A6959795F4
:10206000879577956795BA95C9F7009761057105CA
:1020700008959B01AC010A2E069457954795379514
:102080002795BA95C9F7620F731F841F951FA01D6E
:062090000895F894FFCF53
:10209600537570706C7920566F6C746167653A2061
:1020A600256C75206D560A00476F7420696E74653D
:1020B60072727570746564000A00011F0A000101DE
:1020C600FFFFFF0003014572726F72207768696C2B
:1020D600652052656164696E67205368756E742069
:1020E600566F6C74616765202830783031292E0070
:1020F600526561646564205368756E742069733A2D
:102106002025780A00436F6D707574656420566FDC
:102116006C746167652069733A20252E32666D56A8
:102126000A004572726F72207768696C6520526585
:102136006164696E672043757272656E742028301B
:10214600783034292E00436F6D70757465642049AC
:10215600202830783034292069733A20252E3266BB
:102166006D410A00000000030000000041044F0416
:1021760000004D41433A2025782C25782C25782CD3
:0A21860025782C25782C2578000020
:00000001FF
