:100000000C9446000C9450000C9450000C9450003A
:100010000C9450000C9450000C9450000C94500020
:100020000C9450000C9450000C9450000C94500010
:100030000C9450000C9450000C9450000C94500000
:100040000C9450000C9450000C9450000C945000F0
:100050000C9450000C9450000C9450000C945000E0
:100060000C9450000C9450000C9450000C945000D0
:100070000C9450000C9450000C9450000C945000C0
:100080000C9450000C9450000C94500011241FBE8E
:10009000CFEFD0E1DEBFCDBF0E9452000C947A00BA
:1000A0000C940000809164008F7E80936400109215
:1000B000640082B18FEF82B980E148EC50E0982F64
:1000C000907F93B928E833E1FA013197F1F7215095
:1000D0003109D1F79091630094FF06C0803811F484
:1000E00080E1EDCF880FEBCF803111F480E8E7CFCE
:0800F0008695E5CFF894FFCFDF
:00000001FF
