:100000000C9446000C9463000C9463000C94630001
:100010000C9463000C9463000C9463000C946300D4
:100020000C9463000C9463000C9463000C946300C4
:100030000C9463000C9463000C9463000C946300B4
:100040000C9463000C9463000C9463000C946300A4
:100050000C9463000C9463000C9463000C94630094
:100060000C9463000C9463000C9463000C94630084
:100070000C9463000C9463000C9463000C94630074
:100080000C9463000C9463000C94630011241FBE55
:10009000CFEFD0E1DEBFCDBF11E0A0E0B1E0EEE3F5
:1000A000F8E002C005900D92A832B107D9F711E02F
:1000B000A8E2B1E001C01D92AE32B107E1F70E94A3
:1000C000CD000C941D040C94000083E390E00E948A
:1000D000B9000E9497000E94700080E090E00895AF
:1000E00080916400826080936400809165008260EA
:1000F0008093650088E893E128EC30E0F9013197BE
:10010000F1F70197D9F7809165008D7F80936500A5
:1001100088E893E128EC30E0F9013197F1F7019795
:10012000D9F78091650082608093650008953E9ABA
:100130003F9A87B1807E87B9379A089597B18F71BA
:10014000982B97B9369A86B184B190E0FB019183E0
:10015000808325B1922B9183808308955D9BFECF90
:100160008CB980E090E008955F9BFECF8CB190E069
:1001700008952AB128612AB9E5E9F0E020812660D6
:1001800020839093900089B9E8E2F1E080E091E06B
:1001900093838283918380830895CF93DF9300D0EC
:1001A000CDB7DEB782B1806F82B980EC83B90E948F
:1001B000650080E383B980E090E020E2D22E30E158
:1001C000C32E48ECE42EF12C88248A9453E0952E1B
:1001D000A12CB12C0EE011E0D3B8892B31F4209181
:1001E0006300822F817090E0F8CFC3B888E893E174
:1001F000F7013197F1F70197D9F7BE016F5F7F4F94
:1002000080E090E00E949E0089819A819C01337079
:10021000A0E0BAE00E942101A50194010E943001F2
:100220005F934F933F932F931F930F930E9452011D
:1002300081E090E00F900F900F900F900F900F9033
:10024000CBCFA29FB001B39FC001A39F700D811DB2
:100250001124911DB29F700D811D1124911D0895CF
:10026000A1E21A2EAA1BBB1BFD010DC0AA1FBB1FBA
:10027000EE1FFF1FA217B307E407F50720F0A21B2C
:10028000B30BE40BF50B661F771F881F991F1A9499
:1002900069F760957095809590959B01AC01BD01C3
:1002A000CF010895A0E0B0E0E8E5F1E00C94F6039A
:1002B000AE014B5F5F4FFA0161917191AF01809187
:1002C0002A0190912B010E946801E2E00C94120433
:1002D000ACE0B0E0EEE6F1E00C94E6037C016B01EB
:1002E0008A01FC0117821682838181FFBDC1CE0184
:1002F00001964C01F7019381F60193FD859193FFDF
:1003000081916F01882309F4ABC1853239F493FDE3
:10031000859193FF81916F01853229F4B70190E0B7
:100320000E945003E7CF512C312C20E02032A0F462
:100330008B3269F030F4803259F0833269F42061F5
:100340002CC08D3239F0803339F4216026C0226010
:10035000246023C0286021C027FD27C030ED380F5E
:100360003A3078F426FF06C0FAE05F9E300D112483
:10037000532E13C08AE0389E300D1124332E206294
:100380000CC08E3221F426FD6BC1206406C08C3671
:1003900011F4206802C0883641F4F60193FD85917E
:1003A00093FF81916F018111C1CF982F9F7D95544B
:1003B000933028F40C5F1F4FFFE3F9830DC08336A1
:1003C00031F0833771F0833509F05BC022C0F8014A
:1003D000808189830E5F1F4F44244394512C540124
:1003E00015C03801F2E06F0E711CF801A080B180D9
:1003F00026FF03C0652D70E002C06FEF7FEFC501DF
:100400002C870E9445032C0183012C852F77222EF7
:1004100017C03801F2E06F0E711CF801A080B180A6
:1004200026FF03C0652D70E002C06FEF7FEFC501AE
:100430002C870E943A032C012C852068222E8301F0
:1004400023FC1BC0832D90E048165906B0F4B70179
:1004500080E290E00E9450033A94F4CFF50127FC2B
:10046000859127FE81915F01B70190E00E945003C2
:1004700031103A94F1E04F1A51084114510471F7C8
:10048000E5C0843611F0893639F5F80127FF07C039
:1004900060817181828193810C5F1F4F08C06081F0
:1004A0007181882777FD8095982F0E5F1F4F2F76DB
:1004B000722E97FF09C090958095709561957F4F3A
:1004C0008F4F9F4F2068722E2AE030E0A4010E94D7
:1004D0008803A82EA81844C0853729F42F7EB22E91
:1004E0002AE030E025C0F22FF97FBF2E8F36C1F011
:1004F00018F4883579F0B4C0803719F0883721F0C6
:10050000AFC02F2F2061B22EB4FE0DC08B2D8460A2
:10051000B82E09C024FF0AC09F2F9660B92E06C0CE
:1005200028E030E005C020E130E002C020E132E008
:10053000F801B7FE07C060817181828193810C5FF1
:100540001F4F06C06081718180E090E00E5F1F4FF9
:10055000A4010E948803A82EA818FB2DFF777F2EE8
:1005600076FE0BC0372D3E7FA51450F474FE0AC0F2
:1005700072FC08C0372D3E7E05C0BA2C372D03C053
:10058000BA2C01C0B52C34FF0DC0FE01EA0DF11DDF
:100590008081803311F4397E09C032FF06C0B394E4
:1005A000B39404C0832F867809F0B39433FD13C04D
:1005B00030FF06C05A2CB31418F4530C5B18B32C3C
:1005C000B31468F4B70180E290E03C870E945003C6
:1005D000B3943C85F5CFB31410F43B1801C0312C13
:1005E00034FF12C0B70180E390E03C870E945003C3
:1005F0003C8532FF17C031FD03C088E790E002C0A0
:1006000088E590E0B7010CC0832F867859F031FF60
:1006100002C08BE201C080E237FD8DE2B70190E0BD
:100620000E945003A51438F4B70180E390E00E94C3
:1006300050035A94F7CFAA94F401EA0DF11D80817A
:10064000B70190E00E945003A110F5CF332009F4C8
:1006500051CEB70180E290E00E9450033A94F6CF69
:10066000F7018681978102C08FEF9FEF2C96E2E120
:100670000C940204FC010590615070400110D8F701
:10068000809590958E0F9F1F0895FC0161507040DA
:1006900001900110D8F7809590958E0F9F1F0895B7
:1006A0000F931F93CF93DF93FB01238121FD03C0A1
:1006B0008FEF9FEF28C022FF16C04681578124810B
:1006C00035814217530744F4A081B1819D012F5F0A
:1006D0003F4F318320838C93268137812F5F3F4F9B
:1006E0003783268310C0EB01092F182F0084F18572
:1006F000E02D0995892BE1F68E819F8101969F83DC
:100700008E83812F902FDF91CF911F910F910895AC
:10071000FA01AA27283051F1203181F1E8946F9332
:100720006E7F6E5F7F4F8F4F9F4FAF4FB1E03ED0D8
:10073000B4E03CD0670F781F891F9A1FA11D680F76
:10074000791F8A1F911DA11D6A0F711D811D911DA9
:10075000A11D20D009F468943F912AE0269F11241E
:100760003019305D3193DEF6CF010895462F477082
:10077000405D4193B3E00FD0C9F7F6CF462F4F70DD
:10078000405D4A3318F0495D31FD4052419302D03B
:10079000A9F7EACFB4E0A6959795879577956795E1
:1007A000BA95C9F700976105710508959B01AC01E1
:1007B0000A2E06945795479537952795BA95C9F708
:1007C000620F731F841F951FA01D08952F923F92E3
:1007D0004F925F926F927F928F929F92AF92BF9251
:1007E000CF92DF92EF92FF920F931F93CF93DF93FD
:1007F000CDB7DEB7CA1BDB0B0FB6F894DEBF0FBE5A
:10080000CDBF09942A88398848885F846E847D84A6
:100810008C849B84AA84B984C884DF80EE80FD80A8
:100820000C811B81AA81B981CE0FD11D0FB6F8941E
:0E083000DEBF0FBECDBFED010895F894FFCFDF
:00000001FF
